{
  "contractName": "TodoList",
  "abi": [
    {
      "constant": true,
      "inputs": [
        {
          "name": "",
          "type": "uint256"
        }
      ],
      "name": "todoItems",
      "outputs": [
        {
          "name": "id",
          "type": "uint256"
        },
        {
          "name": "title",
          "type": "string"
        },
        {
          "name": "content",
          "type": "string"
        },
        {
          "name": "isCompleted",
          "type": "bool"
        }
      ],
      "payable": false,
      "stateMutability": "view",
      "type": "function",
      "signature": "0xc627e610"
    },
    {
      "constant": true,
      "inputs": [],
      "name": "todoItemCount",
      "outputs": [
        {
          "name": "",
          "type": "uint256"
        }
      ],
      "payable": false,
      "stateMutability": "view",
      "type": "function",
      "signature": "0xe9945893"
    },
    {
      "inputs": [],
      "payable": false,
      "stateMutability": "nonpayable",
      "type": "constructor",
      "signature": "constructor"
    },
    {
      "anonymous": false,
      "inputs": [
        {
          "indexed": false,
          "name": "id",
          "type": "uint256"
        },
        {
          "indexed": false,
          "name": "title",
          "type": "string"
        },
        {
          "indexed": false,
          "name": "content",
          "type": "string"
        },
        {
          "indexed": false,
          "name": "isCompleted",
          "type": "bool"
        }
      ],
      "name": "TodoItemCreated",
      "type": "event",
      "signature": "0x79253a2e1b2cf5ab9f8f6e3694ba99d86d26ce6ce34cb7d517bb32511d7bb610"
    },
    {
      "anonymous": false,
      "inputs": [
        {
          "indexed": false,
          "name": "id",
          "type": "uint256"
        },
        {
          "indexed": false,
          "name": "completed",
          "type": "bool"
        }
      ],
      "name": "TodoItemToggled",
      "type": "event",
      "signature": "0x4a2e02c4dbeb7254557b977cbb7f5af66fc46150ee3cb2fefcc96ae4f27bdd62"
    },
    {
      "constant": false,
      "inputs": [
        {
          "name": "_title",
          "type": "string"
        },
        {
          "name": "_content",
          "type": "string"
        }
      ],
      "name": "createTodoItem",
      "outputs": [],
      "payable": false,
      "stateMutability": "nonpayable",
      "type": "function",
      "signature": "0xc8eca9a6"
    },
    {
      "constant": false,
      "inputs": [
        {
          "name": "_id",
          "type": "uint256"
        }
      ],
      "name": "toggleCompleted",
      "outputs": [],
      "payable": false,
      "stateMutability": "nonpayable",
      "type": "function",
      "signature": "0x455f5024"
    }
  ],
  "bytecode": "0x60806040526000805534801561001457600080fd5b506100986040805190810160405280600f81526020017f4d794669727374546f646f4974656d00000000000000000000000000000000008152506040805190810160405280600b81526020017f446f20697420666173742100000000000000000000000000000000000000000081525061009d640100000000026401000000009004565b610319565b60806040519081016040528060005481526020018381526020018281526020016000151581525060016000805481526020019081526020016000206000820151816000015560208201518160010190805190602001906100fe929190610274565b50604082015181600201908051906020019061011b929190610274565b5060608201518160030160006101000a81548160ff0219169083151502179055509050507f79253a2e1b2cf5ab9f8f6e3694ba99d86d26ce6ce34cb7d517bb32511d7bb6106000548383600060405180858152602001806020018060200184151515158152602001838103835286818151815260200191508051906020019080838360005b838110156101bb5780820151818401526020810190506101a0565b50505050905090810190601f1680156101e85780820380516001836020036101000a031916815260200191505b50838103825285818151815260200191508051906020019080838360005b83811015610221578082015181840152602081019050610206565b50505050905090810190601f16801561024e5780820380516001836020036101000a031916815260200191505b50965050505050505060405180910390a160008081548092919060010191905055505050565b828054600181600116156101000203166002900490600052602060002090601f016020900481019282601f106102b557805160ff19168380011785556102e3565b828001600101855582156102e3579182015b828111156102e25782518255916020019190600101906102c7565b5b5090506102f091906102f4565b5090565b61031691905b808211156103125760008160009055506001016102fa565b5090565b90565b610a1180620003296000396000f3fe608060405260043610610062576000357c0100000000000000000000000000000000000000000000000000000000900463ffffffff168063455f502414610067578063c627e610146100a2578063c8eca9a6146101d4578063e994589314610333575b600080fd5b34801561007357600080fd5b506100a06004803603602081101561008a57600080fd5b810190808035906020019092919050505061035e565b005b3480156100ae57600080fd5b506100db600480360360208110156100c557600080fd5b81019080803590602001909291905050506105cb565b60405180858152602001806020018060200184151515158152602001838103835286818151815260200191508051906020019080838360005b8381101561012f578082015181840152602081019050610114565b50505050905090810190601f16801561015c5780820380516001836020036101000a031916815260200191505b50838103825285818151815260200191508051906020019080838360005b8381101561019557808201518184015260208101905061017a565b50505050905090810190601f1680156101c25780820380516001836020036101000a031916815260200191505b50965050505050505060405180910390f35b3480156101e057600080fd5b50610331600480360360408110156101f757600080fd5b810190808035906020019064010000000081111561021457600080fd5b82018360208201111561022657600080fd5b8035906020019184600183028401116401000000008311171561024857600080fd5b91908080601f016020809104026020016040519081016040528093929190818152602001838380828437600081840152601f19601f820116905080830192505050505050509192919290803590602001906401000000008111156102ab57600080fd5b8201836020820111156102bd57600080fd5b803590602001918460018302840111640100000000831117156102df57600080fd5b91908080601f016020809104026020016040519081016040528093929190818152602001838380828437600081840152601f19601f820116905080830192505050505050509192919290505050610738565b005b34801561033f57600080fd5b5061034861090f565b6040518082815260200191505060405180910390f35b610366610915565b600160008381526020019081526020016000206080604051908101604052908160008201548152602001600182018054600181600116156101000203166002900480601f0160208091040260200160405190810160405280929190818152602001828054600181600116156101000203166002900480156104285780601f106103fd57610100808354040283529160200191610428565b820191906000526020600020905b81548152906001019060200180831161040b57829003601f168201915b50505050508152602001600282018054600181600116156101000203166002900480601f0160208091040260200160405190810160405280929190818152602001828054600181600116156101000203166002900480156104ca5780601f1061049f576101008083540402835291602001916104ca565b820191906000526020600020905b8154815290600101906020018083116104ad57829003601f168201915b505050505081526020016003820160009054906101000a900460ff1615151515815250509050806060015115816060019015159081151581525050806001600084815260200190815260200160002060008201518160000155602082015181600101908051906020019061053f929190610940565b50604082015181600201908051906020019061055c929190610940565b5060608201518160030160006101000a81548160ff0219169083151502179055509050507f4a2e02c4dbeb7254557b977cbb7f5af66fc46150ee3cb2fefcc96ae4f27bdd6282826060015160405180838152602001821515151581526020019250505060405180910390a15050565b6001602052806000526040600020600091509050806000015490806001018054600181600116156101000203166002900480601f01602080910402602001604051908101604052809291908181526020018280546001816001161561010002031660029004801561067d5780601f106106525761010080835404028352916020019161067d565b820191906000526020600020905b81548152906001019060200180831161066057829003601f168201915b505050505090806002018054600181600116156101000203166002900480601f01602080910402602001604051908101604052809291908181526020018280546001816001161561010002031660029004801561071b5780601f106106f05761010080835404028352916020019161071b565b820191906000526020600020905b8154815290600101906020018083116106fe57829003601f168201915b5050505050908060030160009054906101000a900460ff16905084565b6080604051908101604052806000548152602001838152602001828152602001600015158152506001600080548152602001908152602001600020600082015181600001556020820151816001019080519060200190610799929190610940565b5060408201518160020190805190602001906107b6929190610940565b5060608201518160030160006101000a81548160ff0219169083151502179055509050507f79253a2e1b2cf5ab9f8f6e3694ba99d86d26ce6ce34cb7d517bb32511d7bb6106000548383600060405180858152602001806020018060200184151515158152602001838103835286818151815260200191508051906020019080838360005b8381101561085657808201518184015260208101905061083b565b50505050905090810190601f1680156108835780820380516001836020036101000a031916815260200191505b50838103825285818151815260200191508051906020019080838360005b838110156108bc5780820151818401526020810190506108a1565b50505050905090810190601f1680156108e95780820380516001836020036101000a031916815260200191505b50965050505050505060405180910390a160008081548092919060010191905055505050565b60005481565b6080604051908101604052806000815260200160608152602001606081526020016000151581525090565b828054600181600116156101000203166002900490600052602060002090601f016020900481019282601f1061098157805160ff19168380011785556109af565b828001600101855582156109af579182015b828111156109ae578251825591602001919060010190610993565b5b5090506109bc91906109c0565b5090565b6109e291905b808211156109de5760008160009055506001016109c6565b5090565b9056fea165627a7a723058202ab225347952bd6e59e626d4eb725f8dc95346babf7a04d5340359716c4c56eb0029",
  "source": "pragma solidity ^0.5.0;\r\n\r\n/**\r\n * The TodoList contract\r\n */\r\ncontract TodoList {\r\n\tstruct TodoItem {\r\n\t\tuint id;\r\n\t\tstring title;\r\n\t\tstring content;\r\n\t\tbool isCompleted;\r\n\t}\r\n\tuint public todoItemCount = 0;\r\n\tmapping (uint => TodoItem) public todoItems;\r\n\r\n\tevent TodoItemCreated(\r\n\t\tuint id,\r\n\t\tstring title,\r\n\t\tstring content,\r\n\t\tbool isCompleted\r\n\t);\r\n\r\n\tevent TodoItemToggled(\r\n\t\tuint id,\r\n\t\tbool completed\r\n\t);\r\n\r\n\tconstructor() public {\r\n\t\tcreateTodoItem(\"MyFirstTodoItem\", \"Do it fast!\");\r\n\t}\r\n\r\n\tfunction createTodoItem(string memory _title, string memory _content) public {\r\n\t\ttodoItems[todoItemCount] = TodoItem(todoItemCount, _title, _content, false);\r\n\t\temit TodoItemCreated(todoItemCount, _title, _content, false);\r\n\t\ttodoItemCount++;\r\n\t}\r\n\r\n\tfunction toggleCompleted(uint _id) public {\r\n\t\tTodoItem memory _item = todoItems[_id];\r\n\t\t_item.isCompleted = !_item.isCompleted;\r\n\t\ttodoItems[_id] = _item;\r\n\t\temit TodoItemToggled(_id, _item.isCompleted);\r\n\t}\r\n}\r\n\r\n",
  "sourcePath": "D:/MyProjects/todo-list-eth/contracts/TodoList.sol",
  "compiler": {
    "name": "solc",
    "version": "0.5.0+commit.1d4f565a.Emscripten.clang"
  },
  "schemaVersion": "3.0.1",
  "updatedAt": "2019-08-11T00:06:24.171Z",
  "devdoc": {
    "methods": {}
  },
  "userdoc": {
    "methods": {},
    "notice": "The TodoList contract\r"
  }
}