{
  "contractName": "TodoList",
  "abi": [
    {
      "constant": true,
      "inputs": [],
      "name": "newItemIndex",
      "outputs": [
        {
          "name": "",
          "type": "uint256"
        }
      ],
      "payable": false,
      "stateMutability": "view",
      "type": "function",
      "signature": "0x1c1fb29b"
    },
    {
      "constant": true,
      "inputs": [
        {
          "name": "",
          "type": "uint256"
        }
      ],
      "name": "todoItems",
      "outputs": [
        {
          "name": "id",
          "type": "uint256"
        },
        {
          "name": "title",
          "type": "string"
        },
        {
          "name": "content",
          "type": "string"
        },
        {
          "name": "isCompleted",
          "type": "bool"
        }
      ],
      "payable": false,
      "stateMutability": "view",
      "type": "function",
      "signature": "0xc627e610"
    },
    {
      "constant": true,
      "inputs": [],
      "name": "todoItemCount",
      "outputs": [
        {
          "name": "",
          "type": "uint256"
        }
      ],
      "payable": false,
      "stateMutability": "view",
      "type": "function",
      "signature": "0xe9945893"
    },
    {
      "inputs": [],
      "payable": false,
      "stateMutability": "nonpayable",
      "type": "constructor",
      "signature": "constructor"
    },
    {
      "anonymous": false,
      "inputs": [
        {
          "indexed": false,
          "name": "id",
          "type": "uint256"
        },
        {
          "indexed": false,
          "name": "title",
          "type": "string"
        },
        {
          "indexed": false,
          "name": "content",
          "type": "string"
        },
        {
          "indexed": false,
          "name": "isCompleted",
          "type": "bool"
        }
      ],
      "name": "TodoItemCreated",
      "type": "event",
      "signature": "0x79253a2e1b2cf5ab9f8f6e3694ba99d86d26ce6ce34cb7d517bb32511d7bb610"
    },
    {
      "anonymous": false,
      "inputs": [
        {
          "indexed": false,
          "name": "id",
          "type": "uint256"
        },
        {
          "indexed": false,
          "name": "completed",
          "type": "bool"
        }
      ],
      "name": "TodoItemToggled",
      "type": "event",
      "signature": "0x4a2e02c4dbeb7254557b977cbb7f5af66fc46150ee3cb2fefcc96ae4f27bdd62"
    },
    {
      "constant": false,
      "inputs": [
        {
          "name": "_title",
          "type": "string"
        },
        {
          "name": "_content",
          "type": "string"
        }
      ],
      "name": "createTodoItem",
      "outputs": [],
      "payable": false,
      "stateMutability": "nonpayable",
      "type": "function",
      "signature": "0xc8eca9a6"
    },
    {
      "constant": false,
      "inputs": [
        {
          "name": "_id",
          "type": "uint256"
        }
      ],
      "name": "toggleCompleted",
      "outputs": [],
      "payable": false,
      "stateMutability": "nonpayable",
      "type": "function",
      "signature": "0x455f5024"
    },
    {
      "constant": false,
      "inputs": [
        {
          "name": "_id",
          "type": "uint256"
        }
      ],
      "name": "deleteTodoItem",
      "outputs": [],
      "payable": false,
      "stateMutability": "nonpayable",
      "type": "function",
      "signature": "0x12f616a2"
    }
  ],
  "bytecode": "0x60806040526000805560006001553480156200001a57600080fd5b50620000a06040805190810160405280600f81526020017f4d794669727374546f646f4974656d00000000000000000000000000000000008152506040805190810160405280600b81526020017f446f206974206661737421000000000000000000000000000000000000000000815250620000a6640100000000026401000000009004565b62000348565b60806040519081016040528060005481526020018381526020018281526020016000151581525060026000805481526020019081526020016000206000820151816000015560208201518160010190805190602001906200010992919062000299565b5060408201518160020190805190602001906200012892919062000299565b5060608201518160030160006101000a81548160ff0219169083151502179055509050507f79253a2e1b2cf5ab9f8f6e3694ba99d86d26ce6ce34cb7d517bb32511d7bb6106000548383600060405180858152602001806020018060200184151515158152602001838103835286818151815260200191508051906020019080838360005b83811015620001ca578082015181840152602081019050620001ad565b50505050905090810190601f168015620001f85780820380516001836020036101000a031916815260200191505b50838103825285818151815260200191508051906020019080838360005b838110156200023357808201518184015260208101905062000216565b50505050905090810190601f168015620002615780820380516001836020036101000a031916815260200191505b50965050505050505060405180910390a160008081548092919060010191905055506001600081548092919060010191905055505050565b828054600181600116156101000203166002900490600052602060002090601f016020900481019282601f10620002dc57805160ff19168380011785556200030d565b828001600101855582156200030d579182015b828111156200030c578251825591602001919060010190620002ef565b5b5090506200031c919062000320565b5090565b6200034591905b808211156200034157600081600090555060010162000327565b5090565b90565b610b5580620003586000396000f3fe608060405260043610610078576000357c0100000000000000000000000000000000000000000000000000000000900463ffffffff16806312f616a21461007d5780631c1fb29b146100b8578063455f5024146100e3578063c627e6101461011e578063c8eca9a614610250578063e9945893146103af575b600080fd5b34801561008957600080fd5b506100b6600480360360208110156100a057600080fd5b81019080803590602001909291905050506103da565b005b3480156100c457600080fd5b506100cd610442565b6040518082815260200191505060405180910390f35b3480156100ef57600080fd5b5061011c6004803603602081101561010657600080fd5b8101908080359060200190929190505050610448565b005b34801561012a57600080fd5b506101576004803603602081101561014157600080fd5b81019080803590602001909291905050506106b5565b60405180858152602001806020018060200184151515158152602001838103835286818151815260200191508051906020019080838360005b838110156101ab578082015181840152602081019050610190565b50505050905090810190601f1680156101d85780820380516001836020036101000a031916815260200191505b50838103825285818151815260200191508051906020019080838360005b838110156102115780820151818401526020810190506101f6565b50505050905090810190601f16801561023e5780820380516001836020036101000a031916815260200191505b50965050505050505060405180910390f35b34801561025c57600080fd5b506103ad6004803603604081101561027357600080fd5b810190808035906020019064010000000081111561029057600080fd5b8201836020820111156102a257600080fd5b803590602001918460018302840111640100000000831117156102c457600080fd5b91908080601f016020809104026020016040519081016040528093929190818152602001838380828437600081840152601f19601f8201169050808301925050505050505091929192908035906020019064010000000081111561032757600080fd5b82018360208201111561033957600080fd5b8035906020019184600183028401116401000000008311171561035b57600080fd5b91908080601f016020809104026020016040519081016040528093929190818152602001838380828437600081840152601f19601f820116905080830192505050505050509192919290505050610822565b005b3480156103bb57600080fd5b506103c4610a0b565b6040518082815260200191505060405180910390f35b600260008281526020019081526020016000206000808201600090556001820160006104069190610a11565b6002820160006104169190610a11565b6003820160006101000a81549060ff021916905550506001600081548092919060019003919050555050565b60005481565b610450610a59565b600260008381526020019081526020016000206080604051908101604052908160008201548152602001600182018054600181600116156101000203166002900480601f0160208091040260200160405190810160405280929190818152602001828054600181600116156101000203166002900480156105125780601f106104e757610100808354040283529160200191610512565b820191906000526020600020905b8154815290600101906020018083116104f557829003601f168201915b50505050508152602001600282018054600181600116156101000203166002900480601f0160208091040260200160405190810160405280929190818152602001828054600181600116156101000203166002900480156105b45780601f10610589576101008083540402835291602001916105b4565b820191906000526020600020905b81548152906001019060200180831161059757829003601f168201915b505050505081526020016003820160009054906101000a900460ff16151515158152505090508060600151158160600190151590811515815250508060026000848152602001908152602001600020600082015181600001556020820151816001019080519060200190610629929190610a84565b506040820151816002019080519060200190610646929190610a84565b5060608201518160030160006101000a81548160ff0219169083151502179055509050507f4a2e02c4dbeb7254557b977cbb7f5af66fc46150ee3cb2fefcc96ae4f27bdd6282826060015160405180838152602001821515151581526020019250505060405180910390a15050565b6002602052806000526040600020600091509050806000015490806001018054600181600116156101000203166002900480601f0160208091040260200160405190810160405280929190818152602001828054600181600116156101000203166002900480156107675780601f1061073c57610100808354040283529160200191610767565b820191906000526020600020905b81548152906001019060200180831161074a57829003601f168201915b505050505090806002018054600181600116156101000203166002900480601f0160208091040260200160405190810160405280929190818152602001828054600181600116156101000203166002900480156108055780601f106107da57610100808354040283529160200191610805565b820191906000526020600020905b8154815290600101906020018083116107e857829003601f168201915b5050505050908060030160009054906101000a900460ff16905084565b6080604051908101604052806000548152602001838152602001828152602001600015158152506002600080548152602001908152602001600020600082015181600001556020820151816001019080519060200190610883929190610a84565b5060408201518160020190805190602001906108a0929190610a84565b5060608201518160030160006101000a81548160ff0219169083151502179055509050507f79253a2e1b2cf5ab9f8f6e3694ba99d86d26ce6ce34cb7d517bb32511d7bb6106000548383600060405180858152602001806020018060200184151515158152602001838103835286818151815260200191508051906020019080838360005b83811015610940578082015181840152602081019050610925565b50505050905090810190601f16801561096d5780820380516001836020036101000a031916815260200191505b50838103825285818151815260200191508051906020019080838360005b838110156109a657808201518184015260208101905061098b565b50505050905090810190601f1680156109d35780820380516001836020036101000a031916815260200191505b50965050505050505060405180910390a160008081548092919060010191905055506001600081548092919060010191905055505050565b60015481565b50805460018160011615610100020316600290046000825580601f10610a375750610a56565b601f016020900490600052602060002090810190610a559190610b04565b5b50565b6080604051908101604052806000815260200160608152602001606081526020016000151581525090565b828054600181600116156101000203166002900490600052602060002090601f016020900481019282601f10610ac557805160ff1916838001178555610af3565b82800160010185558215610af3579182015b82811115610af2578251825591602001919060010190610ad7565b5b509050610b009190610b04565b5090565b610b2691905b80821115610b22576000816000905550600101610b0a565b5090565b9056fea165627a7a7230582058e0ff4a8a3019d76ce0cde023db73e606e9a4522f4643f6d1fe27b61cbaa7160029",
  "source": "pragma solidity ^0.5.0;\r\n\r\n/**\r\n * The TodoList contract\r\n */\r\ncontract TodoList {\r\n\tstruct TodoItem {\r\n\t\tuint id;\r\n\t\tstring title;\r\n\t\tstring content;\r\n\t\tbool isCompleted;\r\n\t}\r\n\tuint public newItemIndex = 0;\r\n\tuint public todoItemCount = 0;\r\n\tmapping (uint => TodoItem) public todoItems;\r\n\r\n\tevent TodoItemCreated(\r\n\t\tuint id,\r\n\t\tstring title,\r\n\t\tstring content,\r\n\t\tbool isCompleted\r\n\t);\r\n\r\n\tevent TodoItemToggled(\r\n\t\tuint id,\r\n\t\tbool completed\r\n\t);\r\n\r\n\tconstructor() public {\r\n\t\tcreateTodoItem(\"MyFirstTodoItem\", \"Do it fast!\");\r\n\t}\r\n\r\n\tfunction createTodoItem(string memory _title, string memory _content) public {\r\n\t\ttodoItems[newItemIndex] = TodoItem(newItemIndex, _title, _content, false);\r\n\t\temit TodoItemCreated(newItemIndex, _title, _content, false);\r\n\t\tnewItemIndex++;\r\n\t\ttodoItemCount++;\r\n\t}\r\n\r\n\tfunction toggleCompleted(uint _id) public {\r\n\t\tTodoItem memory _item = todoItems[_id];\r\n\t\t_item.isCompleted = !_item.isCompleted;\r\n\t\ttodoItems[_id] = _item;\r\n\t\temit TodoItemToggled(_id, _item.isCompleted);\r\n\t}\r\n\r\n\tfunction deleteTodoItem(uint _id) public {\r\n\t\tdelete todoItems[_id];\r\n\t\ttodoItemCount--;\r\n\t}\r\n}\r\n\r\n",
  "sourcePath": "D:/MyProjects/todo-list-eth/contracts/TodoList.sol",
  "compiler": {
    "name": "solc",
    "version": "0.5.0+commit.1d4f565a.Emscripten.clang"
  },
  "schemaVersion": "3.0.1",
  "updatedAt": "2019-08-11T01:04:01.270Z",
  "devdoc": {
    "methods": {}
  },
  "userdoc": {
    "methods": {},
    "notice": "The TodoList contract\r"
  }
}