{
  "contractName": "TodoList",
  "abi": [
    {
      "constant": true,
      "inputs": [
        {
          "name": "",
          "type": "uint256"
        }
      ],
      "name": "todoItems",
      "outputs": [
        {
          "name": "id",
          "type": "uint256"
        },
        {
          "name": "title",
          "type": "string"
        },
        {
          "name": "content",
          "type": "string"
        },
        {
          "name": "isCompleted",
          "type": "bool"
        }
      ],
      "payable": false,
      "stateMutability": "view",
      "type": "function",
      "signature": "0xc627e610"
    },
    {
      "constant": true,
      "inputs": [],
      "name": "todoItemCount",
      "outputs": [
        {
          "name": "",
          "type": "uint256"
        }
      ],
      "payable": false,
      "stateMutability": "view",
      "type": "function",
      "signature": "0xe9945893"
    },
    {
      "inputs": [],
      "payable": false,
      "stateMutability": "nonpayable",
      "type": "constructor",
      "signature": "constructor"
    },
    {
      "constant": false,
      "inputs": [
        {
          "name": "_title",
          "type": "string"
        },
        {
          "name": "_content",
          "type": "string"
        }
      ],
      "name": "createTodoItem",
      "outputs": [],
      "payable": false,
      "stateMutability": "nonpayable",
      "type": "function",
      "signature": "0xc8eca9a6"
    }
  ],
  "bytecode": "0x60806040526000805534801561001457600080fd5b506100986040805190810160405280600f81526020017f4d794669727374546f646f4974656d00000000000000000000000000000000008152506040805190810160405280600b81526020017f446f20697420666173742100000000000000000000000000000000000000000081525061009d640100000000026401000000009004565b6101f9565b60806040519081016040528060005481526020018381526020018281526020016000151581525060016000805481526020019081526020016000206000820151816000015560208201518160010190805190602001906100fe929190610154565b50604082015181600201908051906020019061011b929190610154565b5060608201518160030160006101000a81548160ff02191690831515021790555090505060008081548092919060010191905055505050565b828054600181600116156101000203166002900490600052602060002090601f016020900481019282601f1061019557805160ff19168380011785556101c3565b828001600101855582156101c3579182015b828111156101c25782518255916020019190600101906101a7565b5b5090506101d091906101d4565b5090565b6101f691905b808211156101f25760008160009055506001016101da565b5090565b90565b610613806102086000396000f3fe608060405260043610610057576000357c0100000000000000000000000000000000000000000000000000000000900463ffffffff168063c627e6101461005c578063c8eca9a61461018e578063e9945893146102ed575b600080fd5b34801561006857600080fd5b506100956004803603602081101561007f57600080fd5b8101908080359060200190929190505050610318565b60405180858152602001806020018060200184151515158152602001838103835286818151815260200191508051906020019080838360005b838110156100e95780820151818401526020810190506100ce565b50505050905090810190601f1680156101165780820380516001836020036101000a031916815260200191505b50838103825285818151815260200191508051906020019080838360005b8381101561014f578082015181840152602081019050610134565b50505050905090810190601f16801561017c5780820380516001836020036101000a031916815260200191505b50965050505050505060405180910390f35b34801561019a57600080fd5b506102eb600480360360408110156101b157600080fd5b81019080803590602001906401000000008111156101ce57600080fd5b8201836020820111156101e057600080fd5b8035906020019184600183028401116401000000008311171561020257600080fd5b91908080601f016020809104026020016040519081016040528093929190818152602001838380828437600081840152601f19601f8201169050808301925050505050505091929192908035906020019064010000000081111561026557600080fd5b82018360208201111561027757600080fd5b8035906020019184600183028401116401000000008311171561029957600080fd5b91908080601f016020809104026020016040519081016040528093929190818152602001838380828437600081840152601f19601f820116905080830192505050505050509192919290505050610485565b005b3480156102f957600080fd5b5061030261053c565b6040518082815260200191505060405180910390f35b6001602052806000526040600020600091509050806000015490806001018054600181600116156101000203166002900480601f0160208091040260200160405190810160405280929190818152602001828054600181600116156101000203166002900480156103ca5780601f1061039f576101008083540402835291602001916103ca565b820191906000526020600020905b8154815290600101906020018083116103ad57829003601f168201915b505050505090806002018054600181600116156101000203166002900480601f0160208091040260200160405190810160405280929190818152602001828054600181600116156101000203166002900480156104685780601f1061043d57610100808354040283529160200191610468565b820191906000526020600020905b81548152906001019060200180831161044b57829003601f168201915b5050505050908060030160009054906101000a900460ff16905084565b60806040519081016040528060005481526020018381526020018281526020016000151581525060016000805481526020019081526020016000206000820151816000015560208201518160010190805190602001906104e6929190610542565b506040820151816002019080519060200190610503929190610542565b5060608201518160030160006101000a81548160ff02191690831515021790555090505060008081548092919060010191905055505050565b60005481565b828054600181600116156101000203166002900490600052602060002090601f016020900481019282601f1061058357805160ff19168380011785556105b1565b828001600101855582156105b1579182015b828111156105b0578251825591602001919060010190610595565b5b5090506105be91906105c2565b5090565b6105e491905b808211156105e05760008160009055506001016105c8565b5090565b9056fea165627a7a72305820932a9074753eb009bf4f8cb38becc586e1620fd890c07d4027c030492e2314220029",
  "source": "pragma solidity ^0.5.0;\r\n\r\n/**\r\n * The TodoList contract\r\n */\r\ncontract TodoList {\r\n\tstruct TodoItem {\r\n\t\tuint id;\r\n\t\tstring title;\r\n\t\tstring content;\r\n\t\tbool isCompleted;\r\n\t}\r\n\tuint public todoItemCount = 0;\r\n\tmapping (uint => TodoItem) public todoItems;\r\n\r\n\tconstructor() public {\r\n\t\tcreateTodoItem(\"MyFirstTodoItem\", \"Do it fast!\");\r\n\t}\r\n\r\n\tfunction createTodoItem(string memory _title, string memory _content) public {\r\n\t\ttodoItems[todoItemCount] = TodoItem(todoItemCount, _title, _content, false);\r\n\t\ttodoItemCount++;\r\n\t}\r\n}\r\n\r\n",
  "sourcePath": "D:/MyProjects/todo-list-eth/contracts/TodoList.sol",
  "compiler": {
    "name": "solc",
    "version": "0.5.0+commit.1d4f565a.Emscripten.clang"
  },
  "schemaVersion": "3.0.1",
  "updatedAt": "2019-08-10T22:16:38.644Z",
  "devdoc": {
    "methods": {}
  },
  "userdoc": {
    "methods": {},
    "notice": "The TodoList contract\r"
  }
}